{
  "contractName": "Ballot",
  "abi": [
    {
      "constant": true,
      "inputs": [],
      "name": "VueVote",
      "outputs": [
        {
          "name": "",
          "type": "uint256"
        }
      ],
      "payable": false,
      "stateMutability": "view",
      "type": "function"
    },
    {
      "constant": true,
      "inputs": [],
      "name": "chairperson",
      "outputs": [
        {
          "name": "",
          "type": "address"
        }
      ],
      "payable": false,
      "stateMutability": "view",
      "type": "function"
    },
    {
      "constant": true,
      "inputs": [
        {
          "name": "",
          "type": "uint256"
        }
      ],
      "name": "candidates",
      "outputs": [
        {
          "name": "",
          "type": "string"
        }
      ],
      "payable": false,
      "stateMutability": "view",
      "type": "function"
    },
    {
      "constant": true,
      "inputs": [],
      "name": "AngularVote",
      "outputs": [
        {
          "name": "",
          "type": "uint256"
        }
      ],
      "payable": false,
      "stateMutability": "view",
      "type": "function"
    },
    {
      "constant": true,
      "inputs": [],
      "name": "ReactVote",
      "outputs": [
        {
          "name": "",
          "type": "uint256"
        }
      ],
      "payable": false,
      "stateMutability": "view",
      "type": "function"
    },
    {
      "constant": true,
      "inputs": [
        {
          "name": "",
          "type": "address"
        }
      ],
      "name": "Voters",
      "outputs": [
        {
          "name": "weight",
          "type": "uint256"
        },
        {
          "name": "voted",
          "type": "bool"
        },
        {
          "name": "vote",
          "type": "uint256"
        }
      ],
      "payable": false,
      "stateMutability": "view",
      "type": "function"
    },
    {
      "inputs": [],
      "payable": false,
      "stateMutability": "nonpayable",
      "type": "constructor"
    },
    {
      "constant": false,
      "inputs": [
        {
          "name": "voter",
          "type": "address"
        }
      ],
      "name": "giveRight",
      "outputs": [],
      "payable": false,
      "stateMutability": "nonpayable",
      "type": "function"
    },
    {
      "constant": false,
      "inputs": [
        {
          "name": "option",
          "type": "uint256"
        }
      ],
      "name": "vote",
      "outputs": [],
      "payable": false,
      "stateMutability": "nonpayable",
      "type": "function"
    },
    {
      "constant": true,
      "inputs": [],
      "name": "winningCandidate",
      "outputs": [
        {
          "name": "winningCandidate_",
          "type": "string"
        }
      ],
      "payable": false,
      "stateMutability": "view",
      "type": "function"
    }
  ],
  "bytecode": "0x60806040523480156200001157600080fd5b506060604051908101604052806040805190810160405280600581526020017f526561637400000000000000000000000000000000000000000000000000000081525081526020016040805190810160405280600381526020017f567565000000000000000000000000000000000000000000000000000000000081525081526020016040805190810160405280600781526020017f416e67756c6172000000000000000000000000000000000000000000000000008152508152506005906003620000df929190620001a8565b5033600360006101000a81548173ffffffffffffffffffffffffffffffffffffffff021916908373ffffffffffffffffffffffffffffffffffffffff160217905550600160046000600360009054906101000a900473ffffffffffffffffffffffffffffffffffffffff1673ffffffffffffffffffffffffffffffffffffffff1673ffffffffffffffffffffffffffffffffffffffff1681526020019081526020016000206000018190555060008081905550600060018190555060006002819055506200033b565b828054828255906000526020600020908101928215620001fc579160200282015b82811115620001fb578251829080519060200190620001ea9291906200020f565b5091602001919060010190620001c9565b5b5090506200020b919062000296565b5090565b828054600181600116156101000203166002900490600052602060002090601f016020900481019282601f106200025257805160ff191683800117855562000283565b8280016001018555821562000283579182015b828111156200028257825182559160200191906001019062000265565b5b509050620002929190620002c7565b5090565b620002c491905b80821115620002c05760008181620002b69190620002ef565b506001016200029d565b5090565b90565b620002ec91905b80821115620002e8576000816000905550600101620002ce565b5090565b90565b50805460018160011615610100020316600290046000825580601f1062000317575062000338565b601f016020900490600052602060002090810190620003379190620002c7565b5b50565b610a12806200034b6000396000f3fe608060405260043610610099576000357c0100000000000000000000000000000000000000000000000000000000900463ffffffff1680630121b93f1461009e5780631176d564146100d9578063125cbd761461012a5780632e4176cf146101555780633477ee2e146101ac578063687f18c714610260578063aeb1a2111461028b578063d28178d7146102b6578063fdedaa8a14610346575b600080fd5b3480156100aa57600080fd5b506100d7600480360360208110156100c157600080fd5b81019080803590602001909291905050506103bd565b005b3480156100e557600080fd5b50610128600480360360208110156100fc57600080fd5b81019080803573ffffffffffffffffffffffffffffffffffffffff169060200190929190505050610581565b005b34801561013657600080fd5b5061013f6107cd565b6040518082815260200191505060405180910390f35b34801561016157600080fd5b5061016a6107d3565b604051808273ffffffffffffffffffffffffffffffffffffffff1673ffffffffffffffffffffffffffffffffffffffff16815260200191505060405180910390f35b3480156101b857600080fd5b506101e5600480360360208110156101cf57600080fd5b81019080803590602001909291905050506107f9565b6040518080602001828103825283818151815260200191508051906020019080838360005b8381101561022557808201518184015260208101905061020a565b50505050905090810190601f1680156102525780820380516001836020036101000a031916815260200191505b509250505060405180910390f35b34801561026c57600080fd5b506102756108b4565b6040518082815260200191505060405180910390f35b34801561029757600080fd5b506102a06108ba565b6040518082815260200191505060405180910390f35b3480156102c257600080fd5b506102cb6108c0565b6040518080602001828103825283818151815260200191508051906020019080838360005b8381101561030b5780820151818401526020810190506102f0565b50505050905090810190601f1680156103385780820380516001836020036101000a031916815260200191505b509250505060405180910390f35b34801561035257600080fd5b506103956004803603602081101561036957600080fd5b81019080803573ffffffffffffffffffffffffffffffffffffffff1690602001909291905050506109af565b6040518084815260200183151515158152602001828152602001935050505060405180910390f35b6000600460003373ffffffffffffffffffffffffffffffffffffffff1673ffffffffffffffffffffffffffffffffffffffff1681526020019081526020016000209050600081600001541415151561047d576040517f08c379a00000000000000000000000000000000000000000000000000000000081526004018080602001828103825260148152602001807f686173206e6f20726967687420746f20766f746500000000000000000000000081525060200191505060405180910390fd5b8060010160009054906101000a900460ff16151515610504576040517f08c379a00000000000000000000000000000000000000000000000000000000081526004018080602001828103825260118152602001807f68617320616c726561647920766f74656400000000000000000000000000000081525060200191505060405180910390fd5b60018160010160006101000a81548160ff021916908315150217905550818160020181905550600082141561054957600080815480929190600101919050555061057d565b60018214156105695760016000815480929190600101919050555061057c565b6002600081548092919060010191905055505b5b5050565b600360009054906101000a900473ffffffffffffffffffffffffffffffffffffffff1673ffffffffffffffffffffffffffffffffffffffff163373ffffffffffffffffffffffffffffffffffffffff1614151561066c576040517f08c379a00000000000000000000000000000000000000000000000000000000081526004018080602001828103825260278152602001807f4f6e6c79206368616972706572736f6e2063616e20676976652072696768742081526020017f746f20766f74650000000000000000000000000000000000000000000000000081525060400191505060405180910390fd5b600460008273ffffffffffffffffffffffffffffffffffffffff1673ffffffffffffffffffffffffffffffffffffffff16815260200190815260200160002060010160009054906101000a900460ff16151515610731576040517f08c379a000000000000000000000000000000000000000000000000000000000815260040180806020018281038252601b8152602001807f54686520766f7465722068617320616c726561647920766f746564000000000081525060200191505060405180910390fd5b6000600460008373ffffffffffffffffffffffffffffffffffffffff1673ffffffffffffffffffffffffffffffffffffffff1681526020019081526020016000206000015414151561078257600080fd5b6001600460008373ffffffffffffffffffffffffffffffffffffffff1673ffffffffffffffffffffffffffffffffffffffff1681526020019081526020016000206000018190555050565b60015481565b600360009054906101000a900473ffffffffffffffffffffffffffffffffffffffff1681565b60058181548110151561080857fe5b906000526020600020016000915090508054600181600116156101000203166002900480601f0160208091040260200160405190810160405280929190818152602001828054600181600116156101000203166002900480156108ac5780601f10610881576101008083540402835291602001916108ac565b820191906000526020600020905b81548152906001019060200180831161088f57829003601f168201915b505050505081565b60025481565b60005481565b60606001546000541180156108d85750600254600054115b1561091a576040805190810160405280600581526020017f526561637400000000000000000000000000000000000000000000000000000081525090506109ac565b6000546001541180156109305750600254600154115b15610972576040805190810160405280600381526020017f567565000000000000000000000000000000000000000000000000000000000081525090506109ab565b6040805190810160405280600781526020017f416e67756c61720000000000000000000000000000000000000000000000000081525090505b5b90565b60046020528060005260406000206000915090508060000154908060010160009054906101000a900460ff1690806002015490508356fea165627a7a72305820a15c8394251bfa589de0004ada6753dc303c9be4ad66019ef57d26f2ccfeb2bb0029",
  "source": "// SPDX-License-Identifier: UNLICENSED\r\npragma solidity >=0.4.22 <0.9.0;\r\n\r\ncontract Ballot{\r\n\r\n    struct Voter{\r\n        uint weight;\r\n        bool voted;\r\n        uint vote;\r\n    }\r\n\r\n    uint public ReactVote;\r\n    uint public VueVote;\r\n    uint public AngularVote;\r\n\r\n    address public chairperson;\r\n\r\n    mapping(address => Voter) public Voters;\r\n\r\n    string[] public candidates;\r\n\r\n    constructor() public {\r\n        candidates =[\"React\",\"Vue\",\"Angular\"];\r\n        chairperson = msg.sender;\r\n        Voters[chairperson].weight = 1;\r\n        ReactVote=0;\r\n        VueVote=0;\r\n        AngularVote=0;\r\n\r\n    }\r\n\r\n    function giveRight(address voter) public {\r\n        require(msg.sender==chairperson, \"Only chairperson can give right to vote\");\r\n        require(!Voters[voter].voted, \"The voter has already voted\");\r\n        require(Voters[voter].weight==0);\r\n        Voters[voter].weight=1;\r\n    }\r\n\r\n    function vote(uint option) public {\r\n        Voter storage sender = Voters[msg.sender];\r\n        require(sender.weight != 0, \"has no right to vote\");\r\n        require(!sender.voted, \"has already voted\");\r\n        sender.voted=true;\r\n        sender.vote=option;\r\n        if(option==0){\r\n            ReactVote++;\r\n        }\r\n        else if (option==1) {\r\n            VueVote++;\r\n        }\r\n        else{\r\n            AngularVote++;\r\n        }\r\n    }\r\n\r\n    function winningCandidate() public view returns (string memory winningCandidate_){\r\n        if(ReactVote > VueVote && ReactVote > AngularVote){\r\n            winningCandidate_ = \"React\";\r\n        }\r\n        else if(VueVote > ReactVote && VueVote > AngularVote){\r\n            winningCandidate_ = \"Vue\";\r\n        }\r\n        else{\r\n            winningCandidate_ = \"Angular\";\r\n        }\r\n    }\r\n\r\n}\r\n\r\n",
  "sourcePath": "C:/Users/Kanishk Khurana/Desktop/Lumos Projects/Voting-platform-on-Polygon/smart-contract/contracts/Voting.sol",
  "compiler": {
    "name": "solc",
    "version": "0.5.0+commit.1d4f565a.Emscripten.clang"
  },
  "schemaVersion": "3.0.1",
  "updatedAt": "2022-10-09T22:02:38.381Z",
  "devdoc": {
    "methods": {}
  },
  "userdoc": {
    "methods": {}
  }
}