{
  "contractName": "Voting",
  "abi": [
    {
      "constant": true,
      "inputs": [],
      "name": "VueVote",
      "outputs": [
        {
          "name": "",
          "type": "uint256"
        }
      ],
      "payable": false,
      "stateMutability": "view",
      "type": "function",
      "signature": "0x125cbd76"
    },
    {
      "constant": true,
      "inputs": [],
      "name": "chairperson",
      "outputs": [
        {
          "name": "",
          "type": "address"
        }
      ],
      "payable": false,
      "stateMutability": "view",
      "type": "function",
      "signature": "0x2e4176cf"
    },
    {
      "constant": true,
      "inputs": [
        {
          "name": "",
          "type": "uint256"
        }
      ],
      "name": "candidates",
      "outputs": [
        {
          "name": "",
          "type": "string"
        }
      ],
      "payable": false,
      "stateMutability": "view",
      "type": "function",
      "signature": "0x3477ee2e"
    },
    {
      "constant": true,
      "inputs": [],
      "name": "AngularVote",
      "outputs": [
        {
          "name": "",
          "type": "uint256"
        }
      ],
      "payable": false,
      "stateMutability": "view",
      "type": "function",
      "signature": "0x687f18c7"
    },
    {
      "constant": true,
      "inputs": [],
      "name": "ReactVote",
      "outputs": [
        {
          "name": "",
          "type": "uint256"
        }
      ],
      "payable": false,
      "stateMutability": "view",
      "type": "function",
      "signature": "0xaeb1a211"
    },
    {
      "constant": true,
      "inputs": [
        {
          "name": "",
          "type": "address"
        }
      ],
      "name": "Voters",
      "outputs": [
        {
          "name": "weight",
          "type": "uint256"
        },
        {
          "name": "voted",
          "type": "bool"
        },
        {
          "name": "vote",
          "type": "uint256"
        }
      ],
      "payable": false,
      "stateMutability": "view",
      "type": "function",
      "signature": "0xfdedaa8a"
    },
    {
      "inputs": [],
      "payable": false,
      "stateMutability": "nonpayable",
      "type": "constructor",
      "signature": "constructor"
    },
    {
      "constant": false,
      "inputs": [
        {
          "name": "voter",
          "type": "address"
        }
      ],
      "name": "giveRight",
      "outputs": [],
      "payable": false,
      "stateMutability": "nonpayable",
      "type": "function",
      "signature": "0x1176d564"
    },
    {
      "constant": false,
      "inputs": [
        {
          "name": "option",
          "type": "uint256"
        }
      ],
      "name": "vote",
      "outputs": [],
      "payable": true,
      "stateMutability": "payable",
      "type": "function",
      "signature": "0x0121b93f"
    },
    {
      "constant": true,
      "inputs": [],
      "name": "winningCandidate",
      "outputs": [
        {
          "name": "winningCandidate_",
          "type": "string"
        }
      ],
      "payable": false,
      "stateMutability": "view",
      "type": "function",
      "signature": "0xd28178d7"
    }
  ],
  "bytecode": "0x60806040523480156200001157600080fd5b506060604051908101604052806040805190810160405280600581526020017f526561637400000000000000000000000000000000000000000000000000000081525081526020016040805190810160405280600381526020017f567565000000000000000000000000000000000000000000000000000000000081525081526020016040805190810160405280600781526020017f416e67756c6172000000000000000000000000000000000000000000000000008152508152506005906003620000df929190620001a8565b5033600360006101000a81548173ffffffffffffffffffffffffffffffffffffffff021916908373ffffffffffffffffffffffffffffffffffffffff160217905550600160046000600360009054906101000a900473ffffffffffffffffffffffffffffffffffffffff1673ffffffffffffffffffffffffffffffffffffffff1673ffffffffffffffffffffffffffffffffffffffff1681526020019081526020016000206000018190555060008081905550600060018190555060006002819055506200033b565b828054828255906000526020600020908101928215620001fc579160200282015b82811115620001fb578251829080519060200190620001ea9291906200020f565b5091602001919060010190620001c9565b5b5090506200020b919062000296565b5090565b828054600181600116156101000203166002900490600052602060002090601f016020900481019282601f106200025257805160ff191683800117855562000283565b8280016001018555821562000283579182015b828111156200028257825182559160200191906001019062000265565b5b509050620002929190620002c7565b5090565b620002c491905b80821115620002c05760008181620002b69190620002ef565b506001016200029d565b5090565b90565b620002ec91905b80821115620002e8576000816000905550600101620002ce565b5090565b90565b50805460018160011615610100020316600290046000825580601f1062000317575062000338565b601f016020900490600052602060002090810190620003379190620002c7565b5b50565b61091a806200034b6000396000f3fe608060405260043610610099576000357c0100000000000000000000000000000000000000000000000000000000900463ffffffff1680630121b93f1461009e5780631176d564146100cc578063125cbd761461011d5780632e4176cf146101485780633477ee2e1461019f578063687f18c714610253578063aeb1a2111461027e578063d28178d7146102a9578063fdedaa8a14610339575b600080fd5b6100ca600480360360208110156100b457600080fd5b81019080803590602001909291905050506103b0565b005b3480156100d857600080fd5b5061011b600480360360208110156100ef57600080fd5b81019080803573ffffffffffffffffffffffffffffffffffffffff169060200190929190505050610574565b005b34801561012957600080fd5b506101326106d5565b6040518082815260200191505060405180910390f35b34801561015457600080fd5b5061015d6106db565b604051808273ffffffffffffffffffffffffffffffffffffffff1673ffffffffffffffffffffffffffffffffffffffff16815260200191505060405180910390f35b3480156101ab57600080fd5b506101d8600480360360208110156101c257600080fd5b8101908080359060200190929190505050610701565b6040518080602001828103825283818151815260200191508051906020019080838360005b838110156102185780820151818401526020810190506101fd565b50505050905090810190601f1680156102455780820380516001836020036101000a031916815260200191505b509250505060405180910390f35b34801561025f57600080fd5b506102686107bc565b6040518082815260200191505060405180910390f35b34801561028a57600080fd5b506102936107c2565b6040518082815260200191505060405180910390f35b3480156102b557600080fd5b506102be6107c8565b6040518080602001828103825283818151815260200191508051906020019080838360005b838110156102fe5780820151818401526020810190506102e3565b50505050905090810190601f16801561032b5780820380516001836020036101000a031916815260200191505b509250505060405180910390f35b34801561034557600080fd5b506103886004803603602081101561035c57600080fd5b81019080803573ffffffffffffffffffffffffffffffffffffffff1690602001909291905050506108b7565b6040518084815260200183151515158152602001828152602001935050505060405180910390f35b6000600460003373ffffffffffffffffffffffffffffffffffffffff1673ffffffffffffffffffffffffffffffffffffffff16815260200190815260200160002090506000816000015414151515610470576040517f08c379a00000000000000000000000000000000000000000000000000000000081526004018080602001828103825260148152602001807f686173206e6f20726967687420746f20766f746500000000000000000000000081525060200191505060405180910390fd5b8060010160009054906101000a900460ff161515156104f7576040517f08c379a00000000000000000000000000000000000000000000000000000000081526004018080602001828103825260118152602001807f68617320616c726561647920766f74656400000000000000000000000000000081525060200191505060405180910390fd5b60018160010160006101000a81548160ff021916908315150217905550818160020181905550600082141561053c576000808154809291906001019190505550610570565b600182141561055c5760016000815480929190600101919050555061056f565b6002600081548092919060010191905055505b5b5050565b600460008273ffffffffffffffffffffffffffffffffffffffff1673ffffffffffffffffffffffffffffffffffffffff16815260200190815260200160002060010160009054906101000a900460ff16151515610639576040517f08c379a000000000000000000000000000000000000000000000000000000000815260040180806020018281038252601b8152602001807f54686520766f7465722068617320616c726561647920766f746564000000000081525060200191505060405180910390fd5b6000600460008373ffffffffffffffffffffffffffffffffffffffff1673ffffffffffffffffffffffffffffffffffffffff1681526020019081526020016000206000015414151561068a57600080fd5b6001600460008373ffffffffffffffffffffffffffffffffffffffff1673ffffffffffffffffffffffffffffffffffffffff1681526020019081526020016000206000018190555050565b60015481565b600360009054906101000a900473ffffffffffffffffffffffffffffffffffffffff1681565b60058181548110151561071057fe5b906000526020600020016000915090508054600181600116156101000203166002900480601f0160208091040260200160405190810160405280929190818152602001828054600181600116156101000203166002900480156107b45780601f10610789576101008083540402835291602001916107b4565b820191906000526020600020905b81548152906001019060200180831161079757829003601f168201915b505050505081565b60025481565b60005481565b60606001546000541180156107e05750600254600054115b15610822576040805190810160405280600581526020017f526561637400000000000000000000000000000000000000000000000000000081525090506108b4565b6000546001541180156108385750600254600154115b1561087a576040805190810160405280600381526020017f567565000000000000000000000000000000000000000000000000000000000081525090506108b3565b6040805190810160405280600781526020017f416e67756c61720000000000000000000000000000000000000000000000000081525090505b5b90565b60046020528060005260406000206000915090508060000154908060010160009054906101000a900460ff1690806002015490508356fea165627a7a72305820b25c54b96be0d92ffc6cba59c6d9d3dbbce5e454e9ab8318912c4fc172b2bf260029",
  "source": "// SPDX-License-Identifier: UNLICENSED\r\npragma solidity >=0.4.22 <0.9.0;\r\n\r\ncontract Voting{\r\n\r\n    struct Voter{\r\n        uint weight;\r\n        bool voted;\r\n        uint vote;\r\n    }\r\n\r\n    uint public ReactVote;\r\n    uint public VueVote;\r\n    uint public AngularVote;\r\n\r\n    address public chairperson;\r\n\r\n    mapping(address => Voter) public Voters;\r\n\r\n    string[] public candidates;\r\n\r\n    constructor() public {\r\n        candidates =[\"React\",\"Vue\",\"Angular\"];\r\n        chairperson = msg.sender;\r\n        Voters[chairperson].weight = 1;\r\n        ReactVote=0;\r\n        VueVote=0;\r\n        AngularVote=0;\r\n\r\n    }\r\n\r\n    function giveRight(address voter) public {\r\n        // require(msg.sender==chairperson, \"Only chairperson can give right to vote\");\r\n        require(!Voters[voter].voted, \"The voter has already voted\");\r\n        require(Voters[voter].weight==0);\r\n        Voters[voter].weight=1;\r\n    }\r\n\r\n    function vote(uint option) payable public {\r\n        Voter storage sender = Voters[msg.sender];\r\n        require(sender.weight != 0, \"has no right to vote\");\r\n        require(!sender.voted, \"has already voted\");\r\n        sender.voted=true;\r\n        sender.vote=option;\r\n        if(option==0){\r\n            ReactVote++;\r\n        }\r\n        else if (option==1) {\r\n            VueVote++;\r\n        }\r\n        else{\r\n            AngularVote++;\r\n        }\r\n    }\r\n\r\n    function winningCandidate() public view returns (string memory winningCandidate_){\r\n        if(ReactVote > VueVote && ReactVote > AngularVote){\r\n            winningCandidate_ = \"React\";\r\n        }\r\n        else if(VueVote > ReactVote && VueVote > AngularVote){\r\n            winningCandidate_ = \"Vue\";\r\n        }\r\n        else{\r\n            winningCandidate_ = \"Angular\";\r\n        }\r\n    }\r\n\r\n}\r\n\r\n",
  "sourcePath": "C:/Users/Kanishk Khurana/Desktop/Lumos Projects/Voting-platform-on-Polygon/smart-contract/contracts/Voting.sol",
  "compiler": {
    "name": "solc",
    "version": "0.5.0+commit.1d4f565a.Emscripten.clang"
  },
  "schemaVersion": "3.0.1",
  "updatedAt": "2022-10-12T09:59:45.848Z",
  "devdoc": {
    "methods": {}
  },
  "userdoc": {
    "methods": {}
  }
}