{
  "contractName": "Voting",
  "abi": [
    {
      "constant": true,
      "inputs": [
        {
          "name": "",
          "type": "uint256"
        }
      ],
      "name": "Options",
      "outputs": [
        {
          "name": "",
          "type": "string"
        }
      ],
      "payable": false,
      "stateMutability": "view",
      "type": "function",
      "signature": "0x12220fe3"
    },
    {
      "constant": true,
      "inputs": [],
      "name": "VueVote",
      "outputs": [
        {
          "name": "",
          "type": "uint256"
        }
      ],
      "payable": false,
      "stateMutability": "view",
      "type": "function",
      "signature": "0x125cbd76"
    },
    {
      "constant": true,
      "inputs": [],
      "name": "AngularVote",
      "outputs": [
        {
          "name": "",
          "type": "uint256"
        }
      ],
      "payable": false,
      "stateMutability": "view",
      "type": "function",
      "signature": "0x687f18c7"
    },
    {
      "constant": true,
      "inputs": [],
      "name": "ReactVote",
      "outputs": [
        {
          "name": "",
          "type": "uint256"
        }
      ],
      "payable": false,
      "stateMutability": "view",
      "type": "function",
      "signature": "0xaeb1a211"
    },
    {
      "constant": true,
      "inputs": [
        {
          "name": "",
          "type": "address"
        }
      ],
      "name": "Voters",
      "outputs": [
        {
          "name": "voted",
          "type": "bool"
        },
        {
          "name": "voteIndex",
          "type": "uint256"
        },
        {
          "name": "optionChosen",
          "type": "string"
        }
      ],
      "payable": false,
      "stateMutability": "view",
      "type": "function",
      "signature": "0xfdedaa8a"
    },
    {
      "constant": true,
      "inputs": [
        {
          "name": "voter",
          "type": "address"
        }
      ],
      "name": "canVote",
      "outputs": [],
      "payable": false,
      "stateMutability": "view",
      "type": "function",
      "signature": "0xadfaa72e"
    },
    {
      "constant": false,
      "inputs": [
        {
          "name": "voter",
          "type": "address"
        },
        {
          "name": "option",
          "type": "string"
        }
      ],
      "name": "finalVote",
      "outputs": [],
      "payable": false,
      "stateMutability": "nonpayable",
      "type": "function",
      "signature": "0x80eab9f1"
    },
    {
      "constant": true,
      "inputs": [],
      "name": "Winner",
      "outputs": [
        {
          "name": "",
          "type": "string"
        }
      ],
      "payable": false,
      "stateMutability": "view",
      "type": "function",
      "signature": "0xb2b98ed2"
    }
  ],
  "bytecode": "0x608060405260008055600060015560006002556060604051908101604052806040805190810160405280600581526020017f526561637400000000000000000000000000000000000000000000000000000081525081526020016040805190810160405280600381526020017f567565000000000000000000000000000000000000000000000000000000000081525081526020016040805190810160405280600781526020017f416e67756c6172000000000000000000000000000000000000000000000000008152508152506004906003620000df929190620000f4565b50348015620000ed57600080fd5b5062000287565b82805482825590600052602060002090810192821562000148579160200282015b8281111562000147578251829080519060200190620001369291906200015b565b509160200191906001019062000115565b5b509050620001579190620001e2565b5090565b828054600181600116156101000203166002900490600052602060002090601f016020900481019282601f106200019e57805160ff1916838001178555620001cf565b82800160010185558215620001cf579182015b82811115620001ce578251825591602001919060010190620001b1565b5b509050620001de919062000213565b5090565b6200021091905b808211156200020c57600081816200020291906200023b565b50600101620001e9565b5090565b90565b6200023891905b80821115620002345760008160009055506001016200021a565b5090565b90565b50805460018160011615610100020316600290046000825580601f1062000263575062000284565b601f01602090049060005260206000209081019062000283919062000213565b5b50565b610ae980620002976000396000f3fe60806040526004361061008e576000357c0100000000000000000000000000000000000000000000000000000000900463ffffffff16806312220fe314610093578063125cbd7614610147578063687f18c71461017257806380eab9f11461019d578063adfaa72e14610285578063aeb1a211146102d6578063b2b98ed214610301578063fdedaa8a14610391575b600080fd5b34801561009f57600080fd5b506100cc600480360360208110156100b657600080fd5b810190808035906020019092919050505061046d565b6040518080602001828103825283818151815260200191508051906020019080838360005b8381101561010c5780820151818401526020810190506100f1565b50505050905090810190601f1680156101395780820380516001836020036101000a031916815260200191505b509250505060405180910390f35b34801561015357600080fd5b5061015c610528565b6040518082815260200191505060405180910390f35b34801561017e57600080fd5b5061018761052e565b6040518082815260200191505060405180910390f35b3480156101a957600080fd5b50610283600480360360408110156101c057600080fd5b81019080803573ffffffffffffffffffffffffffffffffffffffff169060200190929190803590602001906401000000008111156101fd57600080fd5b82018360208201111561020f57600080fd5b8035906020019184600183028401116401000000008311171561023157600080fd5b91908080601f016020809104026020016040519081016040528093929190818152602001838380828437600081840152601f19601f820116905080830192505050505050509192919290505050610534565b005b34801561029157600080fd5b506102d4600480360360208110156102a857600080fd5b81019080803573ffffffffffffffffffffffffffffffffffffffff169060200190929190505050610787565b005b3480156102e257600080fd5b506102eb610855565b6040518082815260200191505060405180910390f35b34801561030d57600080fd5b5061031661085b565b6040518080602001828103825283818151815260200191508051906020019080838360005b8381101561035657808201518184015260208101905061033b565b50505050905090810190601f1680156103835780820380516001836020036101000a031916815260200191505b509250505060405180910390f35b34801561039d57600080fd5b506103e0600480360360208110156103b457600080fd5b81019080803573ffffffffffffffffffffffffffffffffffffffff169060200190929190505050610949565b604051808415151515815260200183815260200180602001828103825283818151815260200191508051906020019080838360005b83811015610430578082015181840152602081019050610415565b50505050905090810190601f16801561045d5780820380516001836020036101000a031916815260200191505b5094505050505060405180910390f35b60048181548110151561047c57fe5b906000526020600020016000915090508054600181600116156101000203166002900480601f0160208091040260200160405190810160405280929190818152602001828054600181600116156101000203166002900480156105205780601f106104f557610100808354040283529160200191610520565b820191906000526020600020905b81548152906001019060200180831161050357829003601f168201915b505050505081565b60015481565b60025481565b61053d82610787565b80600360008473ffffffffffffffffffffffffffffffffffffffff1673ffffffffffffffffffffffffffffffffffffffff1681526020019081526020016000206002019080519060200190610593929190610a18565b5060405180807f526561637400000000000000000000000000000000000000000000000000000081525060050190506040518091039020816040516020018082805190602001908083835b60208310151561060357805182526020820191506020810190506020830392506105de565b6001836020036101000a03801982511681845116808217855250505050505090500191505060405160208183030381529060405280519060200120141561065a576000808154809291906001019190505550610735565b60405180807f567565000000000000000000000000000000000000000000000000000000000081525060030190506040518091039020816040516020018082805190602001908083835b6020831015156106c957805182526020820191506020810190506020830392506106a4565b6001836020036101000a03801982511681845116808217855250505050505090500191505060405160208183030381529060405280519060200120141561072157600160008154809291906001019190505550610734565b6002600081548092919060010191905055505b5b600360008373ffffffffffffffffffffffffffffffffffffffff1673ffffffffffffffffffffffffffffffffffffffff16815260200190815260200160002060000160009054906101000a9050505050565b60001515600360008373ffffffffffffffffffffffffffffffffffffffff1673ffffffffffffffffffffffffffffffffffffffff16815260200190815260200160002060000160009054906101000a900460ff161515141515610852576040517f08c379a00000000000000000000000000000000000000000000000000000000081526004018080602001828103825260168152602001807f596f75204861766520416c726561647920566f7465640000000000000000000081525060200191505060405180910390fd5b50565b60005481565b60606001546000541180156108735750600254600054115b156108b5576040805190810160405280600581526020017f52656163740000000000000000000000000000000000000000000000000000008152509050610946565b6000546001541180156108cb5750600254600154115b1561090d576040805190810160405280600381526020017f56756500000000000000000000000000000000000000000000000000000000008152509050610946565b6040805190810160405280600781526020017f416e67756c61720000000000000000000000000000000000000000000000000081525090505b90565b60036020528060005260406000206000915090508060000160009054906101000a900460ff1690806001015490806002018054600181600116156101000203166002900480601f016020809104026020016040519081016040528092919081815260200182805460018160011615610100020316600290048015610a0e5780601f106109e357610100808354040283529160200191610a0e565b820191906000526020600020905b8154815290600101906020018083116109f157829003601f168201915b5050505050905083565b828054600181600116156101000203166002900490600052602060002090601f016020900481019282601f10610a5957805160ff1916838001178555610a87565b82800160010185558215610a87579182015b82811115610a86578251825591602001919060010190610a6b565b5b509050610a949190610a98565b5090565b610aba91905b80821115610ab6576000816000905550600101610a9e565b5090565b9056fea165627a7a723058203a2af21caf7e8c39688b2a3b96bba4bb83f9d6d261e9fa5fc7387a76d19e4ed50029",
  "source": "//SPDX-License-Identifier: UNLICENSED\r\npragma solidity >=0.4.0 <0.9.0;\r\n\r\ncontract Voting{\r\n\r\n    uint public ReactVote = 0;\r\n    uint public VueVote = 0;\r\n    uint public AngularVote = 0;\r\n\r\n    struct Voter{\r\n        bool voted ;\r\n        uint voteIndex;\r\n        string optionChosen;\r\n    }\r\n\r\n    // event WinnerFound();\r\n\r\n    mapping (address=>Voter) public Voters;\r\n\r\n    string[] public Options=[\"React\", \"Vue\", \"Angular\"];\r\n\r\n    function canVote(address voter) view public {\r\n        require(\r\n            Voters[voter].voted == false, \"You Have Already Voted\"\r\n        );\r\n    }\r\n\r\n    function finalVote(address voter, string memory option) public {\r\n        canVote(voter);\r\n        Voters[voter].optionChosen = option;\r\n        if(keccak256(abi.encodePacked(option)) == keccak256(\"React\")){\r\n            ReactVote++;\r\n        }else if(keccak256(abi.encodePacked(option)) == keccak256(\"Vue\")){\r\n            VueVote++;\r\n        }else{\r\n            AngularVote++;\r\n        }\r\n        !Voters[voter].voted;\r\n    }\r\n\r\n    function Winner() public view returns(string memory){\r\n        if(ReactVote>VueVote && ReactVote>AngularVote){\r\n            return \"React\";\r\n        }else if(VueVote>ReactVote && VueVote>AngularVote){\r\n            return  \"Vue\";\r\n        }else{\r\n            return \"Angular\";\r\n        }\r\n\r\n        // emit WinnerFound();\r\n    }\r\n\r\n    \r\n\r\n\r\n\r\n\r\n}",
  "sourcePath": "C:/Users/Kanishk Khurana/Desktop/Lumos Projects/Voting-platform-on-Polygon/smart-contract/contracts/Voting.sol",
  "compiler": {
    "name": "solc",
    "version": "0.5.0+commit.1d4f565a.Emscripten.clang"
  },
  "schemaVersion": "3.0.1",
  "updatedAt": "2022-09-24T14:54:34.025Z",
  "devdoc": {
    "methods": {}
  },
  "userdoc": {
    "methods": {}
  }
}