{
  "contractName": "Voting",
  "abi": [
    {
      "constant": true,
      "inputs": [],
      "name": "AngularVote",
      "outputs": [
        {
          "internalType": "uint256",
          "name": "",
          "type": "uint256"
        }
      ],
      "payable": false,
      "stateMutability": "view",
      "type": "function"
    },
    {
      "constant": true,
      "inputs": [
        {
          "internalType": "uint256",
          "name": "",
          "type": "uint256"
        }
      ],
      "name": "Options",
      "outputs": [
        {
          "internalType": "string",
          "name": "",
          "type": "string"
        }
      ],
      "payable": false,
      "stateMutability": "view",
      "type": "function"
    },
    {
      "constant": true,
      "inputs": [],
      "name": "ReactVote",
      "outputs": [
        {
          "internalType": "uint256",
          "name": "",
          "type": "uint256"
        }
      ],
      "payable": false,
      "stateMutability": "view",
      "type": "function"
    },
    {
      "constant": true,
      "inputs": [
        {
          "internalType": "address",
          "name": "",
          "type": "address"
        }
      ],
      "name": "Voters",
      "outputs": [
        {
          "internalType": "bool",
          "name": "voted",
          "type": "bool"
        },
        {
          "internalType": "uint256",
          "name": "voteIndex",
          "type": "uint256"
        },
        {
          "internalType": "string",
          "name": "optionChosen",
          "type": "string"
        }
      ],
      "payable": false,
      "stateMutability": "view",
      "type": "function"
    },
    {
      "constant": true,
      "inputs": [],
      "name": "VueVote",
      "outputs": [
        {
          "internalType": "uint256",
          "name": "",
          "type": "uint256"
        }
      ],
      "payable": false,
      "stateMutability": "view",
      "type": "function"
    },
    {
      "constant": true,
      "inputs": [
        {
          "internalType": "address",
          "name": "voter",
          "type": "address"
        }
      ],
      "name": "canVote",
      "outputs": [],
      "payable": false,
      "stateMutability": "view",
      "type": "function"
    },
    {
      "constant": false,
      "inputs": [
        {
          "internalType": "address",
          "name": "voter",
          "type": "address"
        },
        {
          "internalType": "string",
          "name": "option",
          "type": "string"
        }
      ],
      "name": "finalVote",
      "outputs": [],
      "payable": false,
      "stateMutability": "nonpayable",
      "type": "function"
    },
    {
      "constant": true,
      "inputs": [],
      "name": "Winner",
      "outputs": [
        {
          "internalType": "string",
          "name": "",
          "type": "string"
        }
      ],
      "payable": false,
      "stateMutability": "view",
      "type": "function"
    }
  ],
  "bytecode": "0x6080604052600080556000600155600060025560405180606001604052806040518060400160405280600581526020017f526561637400000000000000000000000000000000000000000000000000000081525081526020016040518060400160405280600381526020017f567565000000000000000000000000000000000000000000000000000000000081525081526020016040518060400160405280600781526020017f416e67756c6172000000000000000000000000000000000000000000000000008152508152506004906003620000de929190620000f3565b50348015620000ec57600080fd5b5062000286565b82805482825590600052602060002090810192821562000147579160200282015b8281111562000146578251829080519060200190620001359291906200015a565b509160200191906001019062000114565b5b509050620001569190620001e1565b5090565b828054600181600116156101000203166002900490600052602060002090601f016020900481019282601f106200019d57805160ff1916838001178555620001ce565b82800160010185558215620001ce579182015b82811115620001cd578251825591602001919060010190620001b0565b5b509050620001dd919062000212565b5090565b6200020f91905b808211156200020b57600081816200020191906200023a565b50600101620001e8565b5090565b90565b6200023791905b808211156200023357600081600090555060010162000219565b5090565b90565b50805460018160011615610100020316600290046000825580601f1062000262575062000283565b601f01602090049060005260206000209081019062000282919062000212565b5b50565b610a7c80620002966000396000f3fe608060405234801561001057600080fd5b50600436106100885760003560e01c8063adfaa72e1161005b578063adfaa72e1461024b578063aeb1a2111461028f578063b2b98ed2146102ad578063fdedaa8a1461033057610088565b806312220fe31461008d578063125cbd7614610134578063687f18c71461015257806380eab9f114610170575b600080fd5b6100b9600480360360208110156100a357600080fd5b81019080803590602001909291905050506103ff565b6040518080602001828103825283818151815260200191508051906020019080838360005b838110156100f95780820151818401526020810190506100de565b50505050905090810190601f1680156101265780820380516001836020036101000a031916815260200191505b509250505060405180910390f35b61013c6104b8565b6040518082815260200191505060405180910390f35b61015a6104be565b6040518082815260200191505060405180910390f35b6102496004803603604081101561018657600080fd5b81019080803573ffffffffffffffffffffffffffffffffffffffff169060200190929190803590602001906401000000008111156101c357600080fd5b8201836020820111156101d557600080fd5b803590602001918460018302840111640100000000831117156101f757600080fd5b91908080601f016020809104026020016040519081016040528093929190818152602001838380828437600081840152601f19601f8201169050808301925050505050505091929192905050506104c4565b005b61028d6004803603602081101561026157600080fd5b81019080803573ffffffffffffffffffffffffffffffffffffffff169060200190929190505050610713565b005b6102976107df565b6040518082815260200191505060405180910390f35b6102b56107e5565b6040518080602001828103825283818151815260200191508051906020019080838360005b838110156102f55780820151818401526020810190506102da565b50505050905090810190601f1680156103225780820380516001836020036101000a031916815260200191505b509250505060405180910390f35b6103726004803603602081101561034657600080fd5b81019080803573ffffffffffffffffffffffffffffffffffffffff1690602001909291905050506108d3565b604051808415151515815260200183815260200180602001828103825283818151815260200191508051906020019080838360005b838110156103c25780820151818401526020810190506103a7565b50505050905090810190601f1680156103ef5780820380516001836020036101000a031916815260200191505b5094505050505060405180910390f35b6004818154811061040c57fe5b906000526020600020016000915090508054600181600116156101000203166002900480601f0160208091040260200160405190810160405280929190818152602001828054600181600116156101000203166002900480156104b05780601f10610485576101008083540402835291602001916104b0565b820191906000526020600020905b81548152906001019060200180831161049357829003601f168201915b505050505081565b60015481565b60025481565b6104cd82610713565b80600360008473ffffffffffffffffffffffffffffffffffffffff1673ffffffffffffffffffffffffffffffffffffffff16815260200190815260200160002060020190805190602001906105239291906109a2565b5060405180807f526561637400000000000000000000000000000000000000000000000000000081525060050190506040518091039020816040516020018082805190602001908083835b60208310610591578051825260208201915060208101905060208303925061056e565b6001836020036101000a0380198251168184511680821785525050505050509050019150506040516020818303038152906040528051906020012014156105e85760008081548092919060010191905055506106c1565b60405180807f567565000000000000000000000000000000000000000000000000000000000081525060030190506040518091039020816040516020018082805190602001908083835b602083106106555780518252602082019150602081019050602083039250610632565b6001836020036101000a0380198251168184511680821785525050505050509050019150506040516020818303038152906040528051906020012014156106ad576001600081548092919060010191905055506106c0565b6002600081548092919060010191905055505b5b600360008373ffffffffffffffffffffffffffffffffffffffff1673ffffffffffffffffffffffffffffffffffffffff16815260200190815260200160002060000160009054906101000a9050505050565b60001515600360008373ffffffffffffffffffffffffffffffffffffffff1673ffffffffffffffffffffffffffffffffffffffff16815260200190815260200160002060000160009054906101000a900460ff161515146107dc576040517f08c379a00000000000000000000000000000000000000000000000000000000081526004018080602001828103825260168152602001807f596f75204861766520416c726561647920566f7465640000000000000000000081525060200191505060405180910390fd5b50565b60005481565b60606001546000541180156107fd5750600254600054115b1561083f576040518060400160405280600581526020017f526561637400000000000000000000000000000000000000000000000000000081525090506108d0565b6000546001541180156108555750600254600154115b15610897576040518060400160405280600381526020017f567565000000000000000000000000000000000000000000000000000000000081525090506108d0565b6040518060400160405280600781526020017f416e67756c61720000000000000000000000000000000000000000000000000081525090505b90565b60036020528060005260406000206000915090508060000160009054906101000a900460ff1690806001015490806002018054600181600116156101000203166002900480601f0160208091040260200160405190810160405280929190818152602001828054600181600116156101000203166002900480156109985780601f1061096d57610100808354040283529160200191610998565b820191906000526020600020905b81548152906001019060200180831161097b57829003601f168201915b5050505050905083565b828054600181600116156101000203166002900490600052602060002090601f016020900481019282601f106109e357805160ff1916838001178555610a11565b82800160010185558215610a11579182015b82811115610a105782518255916020019190600101906109f5565b5b509050610a1e9190610a22565b5090565b610a4491905b80821115610a40576000816000905550600101610a28565b5090565b9056fea265627a7a7231582042f0681da6fcea080418722a629f472c9a7fac66ccf932b9f8c7aa7d67e77ed764736f6c63430005100032",
  "source": "//SPDX-License-Identifier: UNLICENSED\npragma solidity >=0.4.0 <0.9.0;\n\ncontract Voting{\n\n    uint public ReactVote = 0;\n    uint public VueVote = 0;\n    uint public AngularVote = 0;\n\n    struct Voter{\n        bool voted ;\n        uint voteIndex;\n        string optionChosen;\n    }\n\n    // event WinnerFound();\n\n    mapping (address=>Voter) public Voters;\n\n    string[] public Options=[\"React\", \"Vue\", \"Angular\"];\n\n    function canVote(address voter) view public {\n        require(\n            Voters[voter].voted == false, \"You Have Already Voted\"\n        );\n    }\n\n    function finalVote(address voter, string memory option) public {\n        canVote(voter);\n        Voters[voter].optionChosen = option;\n        if(keccak256(abi.encodePacked(option)) == keccak256(\"React\")){\n            ReactVote++;\n        }else if(keccak256(abi.encodePacked(option)) == keccak256(\"Vue\")){\n            VueVote++;\n        }else{\n            AngularVote++;\n        }\n        !Voters[voter].voted;\n    }\n\n    function Winner() public view returns(string memory){\n        if(ReactVote>VueVote && ReactVote>AngularVote){\n            return \"React\";\n        }else if(VueVote>ReactVote && VueVote>AngularVote){\n            return  \"Vue\";\n        }else{\n            return \"Angular\";\n        }\n\n        // emit WinnerFound();\n    }\n\n    \n\n\n\n\n}",
  "sourcePath": "/Users/akashsachan/Lumos/voting-app-polygon/smart-contract/contracts/Voting.sol",
  "compiler": {
    "name": "solc",
    "version": "0.5.16+commit.9c3226ce.Emscripten.clang"
  },
  "schemaVersion": "3.4.10",
  "updatedAt": "2022-09-24T15:50:52.881Z",
  "devdoc": {
    "methods": {}
  },
  "userdoc": {
    "methods": {}
  }
}